{
  "contractName": "Dbooks",
  "abi": [
    {
      "constant": true,
      "inputs": [],
      "name": "name",
      "outputs": [
        {
          "name": "",
          "type": "string"
        }
      ],
      "payable": false,
      "stateMutability": "view",
      "type": "function"
    },
    {
      "constant": true,
      "inputs": [
        {
          "name": "",
          "type": "uint256"
        }
      ],
      "name": "books",
      "outputs": [
        {
          "name": "id",
          "type": "uint256"
        },
        {
          "name": "name",
          "type": "string"
        },
        {
          "name": "edition",
          "type": "uint256"
        },
        {
          "name": "price",
          "type": "uint256"
        },
        {
          "name": "discount",
          "type": "uint256"
        },
        {
          "name": "owner",
          "type": "address"
        },
        {
          "name": "buyer",
          "type": "address"
        },
        {
          "name": "hold",
          "type": "bool"
        },
        {
          "name": "purchased",
          "type": "bool"
        },
        {
          "name": "sellerok",
          "type": "bool"
        },
        {
          "name": "buyerok",
          "type": "bool"
        }
      ],
      "payable": false,
      "stateMutability": "view",
      "type": "function"
    },
    {
      "constant": true,
      "inputs": [],
      "name": "bookCount",
      "outputs": [
        {
          "name": "",
          "type": "uint256"
        }
      ],
      "payable": false,
      "stateMutability": "view",
      "type": "function"
    },
    {
      "inputs": [],
      "payable": true,
      "stateMutability": "payable",
      "type": "constructor"
    },
    {
      "anonymous": false,
      "inputs": [
        {
          "indexed": false,
          "name": "id",
          "type": "uint256"
        },
        {
          "indexed": false,
          "name": "name",
          "type": "string"
        },
        {
          "indexed": false,
          "name": "edition",
          "type": "uint256"
        },
        {
          "indexed": false,
          "name": "price",
          "type": "uint256"
        },
        {
          "indexed": false,
          "name": "discount",
          "type": "uint256"
        },
        {
          "indexed": false,
          "name": "owner",
          "type": "address"
        },
        {
          "indexed": false,
          "name": "buyer",
          "type": "address"
        },
        {
          "indexed": false,
          "name": "hold",
          "type": "bool"
        },
        {
          "indexed": false,
          "name": "purchased",
          "type": "bool"
        },
        {
          "indexed": false,
          "name": "sellerok",
          "type": "bool"
        },
        {
          "indexed": false,
          "name": "buyerok",
          "type": "bool"
        }
      ],
      "name": "BookCreated",
      "type": "event"
    },
    {
      "anonymous": false,
      "inputs": [
        {
          "indexed": false,
          "name": "id",
          "type": "uint256"
        },
        {
          "indexed": false,
          "name": "name",
          "type": "string"
        },
        {
          "indexed": false,
          "name": "edition",
          "type": "uint256"
        },
        {
          "indexed": false,
          "name": "price",
          "type": "uint256"
        },
        {
          "indexed": false,
          "name": "discount",
          "type": "uint256"
        },
        {
          "indexed": false,
          "name": "owner",
          "type": "address"
        },
        {
          "indexed": false,
          "name": "buyer",
          "type": "address"
        },
        {
          "indexed": false,
          "name": "hold",
          "type": "bool"
        },
        {
          "indexed": false,
          "name": "purchased",
          "type": "bool"
        },
        {
          "indexed": false,
          "name": "sellerok",
          "type": "bool"
        },
        {
          "indexed": false,
          "name": "buyerok",
          "type": "bool"
        }
      ],
      "name": "BookRequested",
      "type": "event"
    },
    {
      "anonymous": false,
      "inputs": [
        {
          "indexed": false,
          "name": "id",
          "type": "uint256"
        },
        {
          "indexed": false,
          "name": "name",
          "type": "string"
        },
        {
          "indexed": false,
          "name": "edition",
          "type": "uint256"
        },
        {
          "indexed": false,
          "name": "price",
          "type": "uint256"
        },
        {
          "indexed": false,
          "name": "discount",
          "type": "uint256"
        },
        {
          "indexed": false,
          "name": "owner",
          "type": "address"
        },
        {
          "indexed": false,
          "name": "buyer",
          "type": "address"
        },
        {
          "indexed": false,
          "name": "hold",
          "type": "bool"
        },
        {
          "indexed": false,
          "name": "purchased",
          "type": "bool"
        },
        {
          "indexed": false,
          "name": "sellerok",
          "type": "bool"
        },
        {
          "indexed": false,
          "name": "buyerok",
          "type": "bool"
        }
      ],
      "name": "BookPurchased",
      "type": "event"
    },
    {
      "anonymous": false,
      "inputs": [
        {
          "indexed": false,
          "name": "id",
          "type": "uint256"
        },
        {
          "indexed": false,
          "name": "name",
          "type": "string"
        },
        {
          "indexed": false,
          "name": "edition",
          "type": "uint256"
        },
        {
          "indexed": false,
          "name": "price",
          "type": "uint256"
        },
        {
          "indexed": false,
          "name": "discount",
          "type": "uint256"
        },
        {
          "indexed": false,
          "name": "owner",
          "type": "address"
        },
        {
          "indexed": false,
          "name": "buyer",
          "type": "address"
        },
        {
          "indexed": false,
          "name": "hold",
          "type": "bool"
        },
        {
          "indexed": false,
          "name": "purchased",
          "type": "bool"
        },
        {
          "indexed": false,
          "name": "sellerok",
          "type": "bool"
        },
        {
          "indexed": false,
          "name": "buyerok",
          "type": "bool"
        }
      ],
      "name": "BuyerAccepted",
      "type": "event"
    },
    {
      "anonymous": false,
      "inputs": [
        {
          "indexed": false,
          "name": "id",
          "type": "uint256"
        },
        {
          "indexed": false,
          "name": "name",
          "type": "string"
        },
        {
          "indexed": false,
          "name": "edition",
          "type": "uint256"
        },
        {
          "indexed": false,
          "name": "price",
          "type": "uint256"
        },
        {
          "indexed": false,
          "name": "discount",
          "type": "uint256"
        },
        {
          "indexed": false,
          "name": "owner",
          "type": "address"
        },
        {
          "indexed": false,
          "name": "buyer",
          "type": "address"
        },
        {
          "indexed": false,
          "name": "hold",
          "type": "bool"
        },
        {
          "indexed": false,
          "name": "purchased",
          "type": "bool"
        },
        {
          "indexed": false,
          "name": "sellerok",
          "type": "bool"
        },
        {
          "indexed": false,
          "name": "buyerok",
          "type": "bool"
        }
      ],
      "name": "SellerAccepted",
      "type": "event"
    },
    {
      "constant": false,
      "inputs": [
        {
          "name": "_name",
          "type": "string"
        },
        {
          "name": "_edition",
          "type": "uint256"
        },
        {
          "name": "_price",
          "type": "uint256"
        }
      ],
      "name": "createBook",
      "outputs": [],
      "payable": true,
      "stateMutability": "payable",
      "type": "function"
    },
    {
      "constant": false,
      "inputs": [
        {
          "name": "_id",
          "type": "uint256"
        }
      ],
      "name": "requestBook",
      "outputs": [],
      "payable": false,
      "stateMutability": "nonpayable",
      "type": "function"
    },
    {
      "constant": false,
      "inputs": [
        {
          "name": "_id",
          "type": "uint256"
        },
        {
          "name": "_discount",
          "type": "uint256"
        }
      ],
      "name": "discount",
      "outputs": [],
      "payable": false,
      "stateMutability": "nonpayable",
      "type": "function"
    },
    {
      "constant": false,
      "inputs": [
        {
          "name": "_id",
          "type": "uint256"
        }
      ],
      "name": "purchaseBook",
      "outputs": [],
      "payable": true,
      "stateMutability": "payable",
      "type": "function"
    },
    {
      "constant": false,
      "inputs": [
        {
          "name": "_id",
          "type": "uint256"
        }
      ],
      "name": "accept",
      "outputs": [],
      "payable": false,
      "stateMutability": "nonpayable",
      "type": "function"
    },
    {
      "constant": false,
      "inputs": [
        {
          "name": "_id",
          "type": "uint256"
        }
      ],
      "name": "deposit",
      "outputs": [],
      "payable": true,
      "stateMutability": "payable",
      "type": "function"
    }
  ],
  "bytecode": "0x608060405260006001556040518060400160405280601281526020017f44626f6f6b73204170706c69636174696f6e000000000000000000000000000081525060009080519060200190620000569291906200009e565b5033600260006101000a81548173ffffffffffffffffffffffffffffffffffffffff021916908373ffffffffffffffffffffffffffffffffffffffff1602179055506200014d565b828054600181600116156101000203166002900490600052602060002090601f016020900481019282601f10620000e157805160ff191683800117855562000112565b8280016001018555821562000112579182015b8281111562000111578251825591602001919060010190620000f4565b5b50905062000121919062000125565b5090565b6200014a91905b80821115620001465760008160009055506001016200012c565b5090565b90565b61266a806200015d6000396000f3fe6080604052600436106100865760003560e01c80638d4f64ac116100595780638d4f64ac146102e6578063b6b55f251461032b578063b905ad7814610359578063d14303a214610384578063f7c9f76f146103bf57610086565b806306fdde031461008b57806319b05f491461011b5780631c555f47146101565780636874404614610184575b600080fd5b34801561009757600080fd5b506100a061048e565b6040518080602001828103825283818151815260200191508051906020019080838360005b838110156100e05780820151818401526020810190506100c5565b50505050905090810190601f16801561010d5780820380516001836020036101000a031916815260200191505b509250505060405180910390f35b34801561012757600080fd5b506101546004803603602081101561013e57600080fd5b810190808035906020019092919050505061052c565b005b6101826004803603602081101561016c57600080fd5b8101908080359060200190929190505050610db9565b005b34801561019057600080fd5b506101bd600480360360208110156101a757600080fd5b81019080803590602001909291905050506113ad565b604051808c8152602001806020018b81526020018a81526020018981526020018873ffffffffffffffffffffffffffffffffffffffff1673ffffffffffffffffffffffffffffffffffffffff1681526020018773ffffffffffffffffffffffffffffffffffffffff1673ffffffffffffffffffffffffffffffffffffffff1681526020018615151515815260200185151515158152602001841515151581526020018315151515815260200182810382528c818151815260200191508051906020019080838360005b838110156102a1578082015181840152602081019050610286565b50505050905090810190601f1680156102ce5780820380516001836020036101000a031916815260200191505b509c5050505050505050505050505060405180910390f35b3480156102f257600080fd5b506103296004803603604081101561030957600080fd5b810190808035906020019092919080359060200190929190505050611513565b005b6103576004803603602081101561034157600080fd5b81019080803590602001909291905050506118c5565b005b34801561036557600080fd5b5061036e611b5d565b6040518082815260200191505060405180910390f35b34801561039057600080fd5b506103bd600480360360208110156103a757600080fd5b8101908080359060200190929190505050611b63565b005b61048c600480360360608110156103d557600080fd5b81019080803590602001906401000000008111156103f257600080fd5b82018360208201111561040457600080fd5b8035906020019184600183028401116401000000008311171561042657600080fd5b91908080601f016020809104026020016040519081016040528093929190818152602001838380828437600081840152601f19601f8201169050808301925050505050505091929192908035906020019092919080359060200190929190505050612106565b005b60008054600181600116156101000203166002900480601f0160208091040260200160405190810160405280929190818152602001828054600181600116156101000203166002900480156105245780601f106104f957610100808354040283529160200191610524565b820191906000526020600020905b81548152906001019060200180831161050757829003601f168201915b505050505081565b61053461250b565b600360008381526020019081526020016000206040518061016001604052908160008201548152602001600182018054600181600116156101000203166002900480601f0160208091040260200160405190810160405280929190818152602001828054600181600116156101000203166002900480156105f65780601f106105cb576101008083540402835291602001916105f6565b820191906000526020600020905b8154815290600101906020018083116105d957829003601f168201915b505050505081526020016002820154815260200160038201548152602001600482015481526020016005820160009054906101000a900473ffffffffffffffffffffffffffffffffffffffff1673ffffffffffffffffffffffffffffffffffffffff1673ffffffffffffffffffffffffffffffffffffffff1681526020016006820160009054906101000a900473ffffffffffffffffffffffffffffffffffffffff1673ffffffffffffffffffffffffffffffffffffffff1673ffffffffffffffffffffffffffffffffffffffff1681526020016006820160149054906101000a900460ff161515151581526020016006820160159054906101000a900460ff161515151581526020016006820160169054906101000a900460ff161515151581526020016006820160179054906101000a900460ff161515151581525050905080610100015161074657600080fd5b60008160a00151905060008260c0015190508073ffffffffffffffffffffffffffffffffffffffff163373ffffffffffffffffffffffffffffffffffffffff161415610a875760018361014001901515908115158152505082600360008681526020019081526020016000206000820151816000015560208201518160010190805190602001906107d8929190612599565b5060408201518160020155606082015181600301556080820151816004015560a08201518160050160006101000a81548173ffffffffffffffffffffffffffffffffffffffff021916908373ffffffffffffffffffffffffffffffffffffffff16021790555060c08201518160060160006101000a81548173ffffffffffffffffffffffffffffffffffffffff021916908373ffffffffffffffffffffffffffffffffffffffff16021790555060e08201518160060160146101000a81548160ff0219169083151502179055506101008201518160060160156101000a81548160ff0219169083151502179055506101208201518160060160166101000a81548160ff0219169083151502179055506101408201518160060160176101000a81548160ff0219169083151502179055509050507f9d887e027370a05b56cbf5a229213c457a1de18ce4f9bfef6eaffb02a20f6530836000015184602001518560400151866060015187608001518860a001518960c0015160018060018d6101200151604051808c8152602001806020018b81526020018a81526020018981526020018873ffffffffffffffffffffffffffffffffffffffff1673ffffffffffffffffffffffffffffffffffffffff1681526020018773ffffffffffffffffffffffffffffffffffffffff1673ffffffffffffffffffffffffffffffffffffffff1681526020018615151515815260200185151515158152602001841515151581526020018315151515815260200182810382528c818151815260200191508051906020019080838360005b83811015610a3e578082015181840152602081019050610a23565b50505050905090810190601f168015610a6b5780820380516001836020036101000a031916815260200191505b509c5050505050505050505050505060405180910390a1610db3565b8173ffffffffffffffffffffffffffffffffffffffff163373ffffffffffffffffffffffffffffffffffffffff161415610db2576001836101200190151590811515815250508260036000868152602001908152602001600020600082015181600001556020820151816001019080519060200190610b07929190612599565b5060408201518160020155606082015181600301556080820151816004015560a08201518160050160006101000a81548173ffffffffffffffffffffffffffffffffffffffff021916908373ffffffffffffffffffffffffffffffffffffffff16021790555060c08201518160060160006101000a81548173ffffffffffffffffffffffffffffffffffffffff021916908373ffffffffffffffffffffffffffffffffffffffff16021790555060e08201518160060160146101000a81548160ff0219169083151502179055506101008201518160060160156101000a81548160ff0219169083151502179055506101208201518160060160166101000a81548160ff0219169083151502179055506101408201518160060160176101000a81548160ff0219169083151502179055509050507f0b01191e9be50b811011cc89efdceb81f2700d6a4b0c161f6c1fbe2ffeaacd34836000015184602001518560400151866060015187608001518860a001518960c001516001808c61014001516001604051808c8152602001806020018b81526020018a81526020018981526020018873ffffffffffffffffffffffffffffffffffffffff1673ffffffffffffffffffffffffffffffffffffffff1681526020018773ffffffffffffffffffffffffffffffffffffffff1673ffffffffffffffffffffffffffffffffffffffff1681526020018615151515815260200185151515158152602001841515151581526020018315151515815260200182810382528c818151815260200191508051906020019080838360005b83811015610d6d578082015181840152602081019050610d52565b50505050905090810190601f168015610d9a5780820380516001836020036101000a031916815260200191505b509c5050505050505050505050505060405180910390a15b5b50505050565b610dc161250b565b600360008381526020019081526020016000206040518061016001604052908160008201548152602001600182018054600181600116156101000203166002900480601f016020809104026020016040519081016040528092919081815260200182805460018160011615610100020316600290048015610e835780601f10610e5857610100808354040283529160200191610e83565b820191906000526020600020905b815481529060010190602001808311610e6657829003601f168201915b505050505081526020016002820154815260200160038201548152602001600482015481526020016005820160009054906101000a900473ffffffffffffffffffffffffffffffffffffffff1673ffffffffffffffffffffffffffffffffffffffff1673ffffffffffffffffffffffffffffffffffffffff1681526020016006820160009054906101000a900473ffffffffffffffffffffffffffffffffffffffff1673ffffffffffffffffffffffffffffffffffffffff1673ffffffffffffffffffffffffffffffffffffffff1681526020016006820160149054906101000a900460ff161515151581526020016006820160159054906101000a900460ff161515151581526020016006820160169054906101000a900460ff161515151581526020016006820160179054906101000a900460ff161515151581525050905060008160a00151905060008260000151118015610fe75750600154826000015111155b610ff057600080fd5b816080015182606001510334101561100757600080fd5b8160e0015161101557600080fd5b3373ffffffffffffffffffffffffffffffffffffffff168173ffffffffffffffffffffffffffffffffffffffff16141561104e57600080fd5b600182610100019015159081151581525050816003600085815260200190815260200160002060008201518160000155602082015181600101908051906020019061109a929190612599565b5060408201518160020155606082015181600301556080820151816004015560a08201518160050160006101000a81548173ffffffffffffffffffffffffffffffffffffffff021916908373ffffffffffffffffffffffffffffffffffffffff16021790555060c08201518160060160006101000a81548173ffffffffffffffffffffffffffffffffffffffff021916908373ffffffffffffffffffffffffffffffffffffffff16021790555060e08201518160060160146101000a81548160ff0219169083151502179055506101008201518160060160156101000a81548160ff0219169083151502179055506101208201518160060160166101000a81548160ff0219169083151502179055506101408201518160060160176101000a81548160ff021916908315150217905550905050600260009054906101000a900473ffffffffffffffffffffffffffffffffffffffff1673ffffffffffffffffffffffffffffffffffffffff166108fc349081150290604051600060405180830381858888f19350505050158015611235573d6000803e3d6000fd5b507fa49c804b3595c1bbc31500c3f06672da616cd3003592e16b6c1e6c0c5fc33c8b826000015183602001518460400151856060015186608001518760a001518860c00151600180600080604051808c8152602001806020018b81526020018a81526020018981526020018873ffffffffffffffffffffffffffffffffffffffff1673ffffffffffffffffffffffffffffffffffffffff1681526020018773ffffffffffffffffffffffffffffffffffffffff1673ffffffffffffffffffffffffffffffffffffffff1681526020018615151515815260200185151515158152602001841515151581526020018315151515815260200182810382528c818151815260200191508051906020019080838360005b83811015611364578082015181840152602081019050611349565b50505050905090810190601f1680156113915780820380516001836020036101000a031916815260200191505b509c5050505050505050505050505060405180910390a1505050565b6003602052806000526040600020600091509050806000015490806001018054600181600116156101000203166002900480601f01602080910402602001604051908101604052809291908181526020018280546001816001161561010002031660029004801561145f5780601f106114345761010080835404028352916020019161145f565b820191906000526020600020905b81548152906001019060200180831161144257829003601f168201915b5050505050908060020154908060030154908060040154908060050160009054906101000a900473ffffffffffffffffffffffffffffffffffffffff16908060060160009054906101000a900473ffffffffffffffffffffffffffffffffffffffff16908060060160149054906101000a900460ff16908060060160159054906101000a900460ff16908060060160169054906101000a900460ff16908060060160179054906101000a900460ff1690508b565b61151b61250b565b600360008481526020019081526020016000206040518061016001604052908160008201548152602001600182018054600181600116156101000203166002900480601f0160208091040260200160405190810160405280929190818152602001828054600181600116156101000203166002900480156115dd5780601f106115b2576101008083540402835291602001916115dd565b820191906000526020600020905b8154815290600101906020018083116115c057829003601f168201915b505050505081526020016002820154815260200160038201548152602001600482015481526020016005820160009054906101000a900473ffffffffffffffffffffffffffffffffffffffff1673ffffffffffffffffffffffffffffffffffffffff1673ffffffffffffffffffffffffffffffffffffffff1681526020016006820160009054906101000a900473ffffffffffffffffffffffffffffffffffffffff1673ffffffffffffffffffffffffffffffffffffffff1673ffffffffffffffffffffffffffffffffffffffff1681526020016006820160149054906101000a900460ff161515151581526020016006820160159054906101000a900460ff161515151581526020016006820160169054906101000a900460ff161515151581526020016006820160179054906101000a900460ff16151515158152505090508060e0015161172c57600080fd5b600082118015611740575080606001518211155b61174957600080fd5b81816080018181525050806003600085815260200190815260200160002060008201518160000155602082015181600101908051906020019061178d929190612599565b5060408201518160020155606082015181600301556080820151816004015560a08201518160050160006101000a81548173ffffffffffffffffffffffffffffffffffffffff021916908373ffffffffffffffffffffffffffffffffffffffff16021790555060c08201518160060160006101000a81548173ffffffffffffffffffffffffffffffffffffffff021916908373ffffffffffffffffffffffffffffffffffffffff16021790555060e08201518160060160146101000a81548160ff0219169083151502179055506101008201518160060160156101000a81548160ff0219169083151502179055506101208201518160060160166101000a81548160ff0219169083151502179055506101408201518160060160176101000a81548160ff021916908315150217905550905050505050565b6118cd61250b565b600360008381526020019081526020016000206040518061016001604052908160008201548152602001600182018054600181600116156101000203166002900480601f01602080910402602001604051908101604052809291908181526020018280546001816001161561010002031660029004801561198f5780601f106119645761010080835404028352916020019161198f565b820191906000526020600020905b81548152906001019060200180831161197257829003601f168201915b505050505081526020016002820154815260200160038201548152602001600482015481526020016005820160009054906101000a900473ffffffffffffffffffffffffffffffffffffffff1673ffffffffffffffffffffffffffffffffffffffff1673ffffffffffffffffffffffffffffffffffffffff1681526020016006820160009054906101000a900473ffffffffffffffffffffffffffffffffffffffff1673ffffffffffffffffffffffffffffffffffffffff1673ffffffffffffffffffffffffffffffffffffffff1681526020016006820160149054906101000a900460ff161515151581526020016006820160159054906101000a900460ff161515151581526020016006820160169054906101000a900460ff161515151581526020016006820160179054906101000a900460ff161515151581525050905060008160a00151905060006064836060015181611ae957fe5b04905080600284606001510203341015611b0257600080fd5b6000349050600082820390508373ffffffffffffffffffffffffffffffffffffffff166108fc829081150290604051600060405180830381858888f19350505050158015611b54573d6000803e3d6000fd5b50505050505050565b60015481565b611b6b61250b565b600360008381526020019081526020016000206040518061016001604052908160008201548152602001600182018054600181600116156101000203166002900480601f016020809104026020016040519081016040528092919081815260200182805460018160011615610100020316600290048015611c2d5780601f10611c0257610100808354040283529160200191611c2d565b820191906000526020600020905b815481529060010190602001808311611c1057829003601f168201915b505050505081526020016002820154815260200160038201548152602001600482015481526020016005820160009054906101000a900473ffffffffffffffffffffffffffffffffffffffff1673ffffffffffffffffffffffffffffffffffffffff1673ffffffffffffffffffffffffffffffffffffffff1681526020016006820160009054906101000a900473ffffffffffffffffffffffffffffffffffffffff1673ffffffffffffffffffffffffffffffffffffffff1673ffffffffffffffffffffffffffffffffffffffff1681526020016006820160149054906101000a900460ff161515151581526020016006820160159054906101000a900460ff161515151581526020016006820160169054906101000a900460ff161515151581526020016006820160179054906101000a900460ff161515151581525050905060008160000151118015611d885750600154816000015111155b611d9157600080fd5b8060e0015115611da057600080fd5b3373ffffffffffffffffffffffffffffffffffffffff168160a0015173ffffffffffffffffffffffffffffffffffffffff161415611ddd57600080fd5b60018160e0019015159081151581525050338160c0019073ffffffffffffffffffffffffffffffffffffffff16908173ffffffffffffffffffffffffffffffffffffffff16815250508060036000848152602001908152602001600020600082015181600001556020820151816001019080519060200190611e60929190612599565b5060408201518160020155606082015181600301556080820151816004015560a08201518160050160006101000a81548173ffffffffffffffffffffffffffffffffffffffff021916908373ffffffffffffffffffffffffffffffffffffffff16021790555060c08201518160060160006101000a81548173ffffffffffffffffffffffffffffffffffffffff021916908373ffffffffffffffffffffffffffffffffffffffff16021790555060e08201518160060160146101000a81548160ff0219169083151502179055506101008201518160060160156101000a81548160ff0219169083151502179055506101208201518160060160166101000a81548160ff0219169083151502179055506101408201518160060160176101000a81548160ff0219169083151502179055509050507fc3030a7507ad115bf37f6efa33462fcf3c0db03ef9f34de785b710287e8907e6816000015182602001518360400151846060015185608001518660a001513360016000806000604051808c8152602001806020018b81526020018a81526020018981526020018873ffffffffffffffffffffffffffffffffffffffff1673ffffffffffffffffffffffffffffffffffffffff1681526020018773ffffffffffffffffffffffffffffffffffffffff1673ffffffffffffffffffffffffffffffffffffffff1681526020018615151515815260200185151515158152602001841515151581526020018315151515815260200182810382528c818151815260200191508051906020019080838360005b838110156120be5780820151818401526020810190506120a3565b50505050905090810190601f1680156120eb5780820380516001836020036101000a031916815260200191505b509c5050505050505050505050505060405180910390a15050565b600083511161211457600080fd5b6000821161212157600080fd5b6000811161212e57600080fd5b6001600081548092919060010191905055508034101561214d57600080fd5b600260009054906101000a900473ffffffffffffffffffffffffffffffffffffffff1673ffffffffffffffffffffffffffffffffffffffff166108fc349081150290604051600060405180830381858888f193505050501580156121b5573d6000803e3d6000fd5b506040518061016001604052806001548152602001848152602001838152602001828152602001600081526020013373ffffffffffffffffffffffffffffffffffffffff168152602001600073ffffffffffffffffffffffffffffffffffffffff16815260200160001515815260200160001515815260200160001515815260200160001515815250600360006001548152602001908152602001600020600082015181600001556020820151816001019080519060200190612279929190612599565b5060408201518160020155606082015181600301556080820151816004015560a08201518160050160006101000a81548173ffffffffffffffffffffffffffffffffffffffff021916908373ffffffffffffffffffffffffffffffffffffffff16021790555060c08201518160060160006101000a81548173ffffffffffffffffffffffffffffffffffffffff021916908373ffffffffffffffffffffffffffffffffffffffff16021790555060e08201518160060160146101000a81548160ff0219169083151502179055506101008201518160060160156101000a81548160ff0219169083151502179055506101208201518160060160166101000a81548160ff0219169083151502179055506101408201518160060160176101000a81548160ff0219169083151502179055509050507f6a9f8c593448a3845252d7ae1d1f8dc893a79f577ab772eed14609027b8d3efa6001548484846000336000806000806000604051808c8152602001806020018b81526020018a81526020018981526020018873ffffffffffffffffffffffffffffffffffffffff1673ffffffffffffffffffffffffffffffffffffffff1681526020018773ffffffffffffffffffffffffffffffffffffffff1673ffffffffffffffffffffffffffffffffffffffff1681526020018615151515815260200185151515158152602001841515151581526020018315151515815260200182810382528c818151815260200191508051906020019080838360005b838110156124c25780820151818401526020810190506124a7565b50505050905090810190601f1680156124ef5780820380516001836020036101000a031916815260200191505b509c5050505050505050505050505060405180910390a1505050565b6040518061016001604052806000815260200160608152602001600081526020016000815260200160008152602001600073ffffffffffffffffffffffffffffffffffffffff168152602001600073ffffffffffffffffffffffffffffffffffffffff1681526020016000151581526020016000151581526020016000151581526020016000151581525090565b828054600181600116156101000203166002900490600052602060002090601f016020900481019282601f106125da57805160ff1916838001178555612608565b82800160010185558215612608579182015b828111156126075782518255916020019190600101906125ec565b5b5090506126159190612619565b5090565b61263b91905b8082111561263757600081600090555060010161261f565b5090565b9056fea165627a7a7230582068d9fd961ac67fb209123d1544d3704d68e53bf2f8c789855601e4cc632028f80029",
  "source": "pragma solidity ^0.5.2;\n\ncontract Dbooks {\n    string public name;\n    uint public bookCount = 0;\n    address payable handler;\n    mapping(uint => Book) public books;\n\n    struct Book {\n        uint id;\n        string name;\n        uint edition;\n        uint price;\n        uint discount;\n        address payable owner;\n        address payable buyer;\n        bool hold;\n        bool purchased;\n        bool sellerok;\n        bool buyerok;\n    }\n\n    event BookCreated(\n        uint id,\n        string name,\n        uint edition,\n        uint price,\n        uint discount,\n        address payable owner,\n        address payable buyer,\n        bool hold,\n        bool purchased,\n        bool sellerok,\n        bool buyerok\n    );\n\n    event BookRequested(\n        uint id,\n        string name,\n        uint edition,\n        uint price,\n        uint discount,\n        address payable owner,\n        address payable buyer,\n        bool hold,\n        bool purchased,\n        bool sellerok,\n        bool buyerok\n    );\n    \n        event BookPurchased(\n        uint id,\n        string name,\n        uint edition,\n        uint price,\n        uint discount,\n        address payable owner,\n        address payable buyer,\n        bool hold,\n        bool purchased,\n        bool sellerok,\n        bool buyerok\n    );\n    \n    event BuyerAccepted(\n        uint id,\n        string name,\n        uint edition,\n        uint price,\n        uint discount,\n        address payable owner,\n        address payable buyer,\n        bool hold,\n        bool purchased,\n        bool sellerok,\n        bool buyerok\n    );\n    \n    event SellerAccepted(\n        uint id,\n        string name,\n        uint edition,\n        uint price,\n        uint discount,\n        address payable owner,\n        address payable buyer,\n        bool hold,\n        bool purchased,\n        bool sellerok,\n        bool buyerok\n    );\n    \n    constructor() public payable{\n        name = \"Dbooks Application\";\n        handler = msg.sender;\n    }\n\n    function \n        createBook(string memory _name, uint _edition, uint _price)\n        public\n        payable {\n        //Require valid name\n        require(bytes(_name).length > 0);\n        // Require valid price\n        require(_edition > 0);\n        // Require a valid number for edition\n        require(_price > 0);\n        //The variable for bookcount increases by 1\n        bookCount ++;\n        \n        // rquire ether\n        require(msg.value >= _price);\n        \n        //Pay the price of the book\n        handler.transfer(msg.value);\n        \n        //address(_deployer).transfer(_price);\n        \n        //Create Book\n        books[bookCount] = Book(bookCount, _name, _edition, _price, 0, msg.sender, 0x0000000000000000000000000000000000000000, false, false, false, false);\n\n        //Event Book\n        emit BookCreated(bookCount, _name, _edition, _price, 0,  msg.sender, 0x0000000000000000000000000000000000000000, false, false, false, false);\n    }\n\n\n    function requestBook(uint _id) public {\n        //Get book\n        Book memory _book = books[_id];\n        //Make sure id is valid\n        require(_book.id > 0 && _book.id <= bookCount);\n        //Require it is not on hold\n        require(!_book.hold);\n        // Require buyer is not seller\n        require(_book.owner != msg.sender);\n        \n        //Mark on HOLD\n        _book.hold = true;\n        //SEt buyer\n        _book.buyer = msg.sender;\n        //Update\n        books[_id] = _book;\n\n        //Trigger event\n        emit BookRequested(_book.id, _book.name, _book.edition, _book.price, _book.discount, _book.owner, msg.sender, true, false, false, false);\n    }\n    \n    \n    function discount(uint _id, uint _discount) public {\n        //Get book\n        Book memory _book = books[_id];\n        //Require that book is requested\n        require(_book.hold);\n        //Make sure discount is valid\n        require(_discount > 0 && _discount <= _book.price);\n        //Set Discount\n        _book.discount = _discount;\n        //Update\n        books[_id] = _book;\n        \n    }\n\n    function purchaseBook(uint _id) public payable{\n        //Get book\n        Book memory _book = books[_id];\n        //Get owner\n        address payable _seller = _book.owner;\n        //Make sure id is valid\n        require(_book.id > 0 && _book.id <= bookCount);\n        //Require Ether\n        require(msg.value >= _book.price - _book.discount);\n        //Require it is not on hold\n        require(_book.hold);\n        // Require buyer is not seller\n        require(_seller != msg.sender);\n        \n        //Mark as Purchased \n        _book.purchased = true;\n        //Update\n        books[_id] = _book;\n\n        //Pay the price of the book\n        handler.transfer(msg.value);\n\n        //Trigger event\n        emit BookPurchased(_book.id, _book.name, _book.edition, _book.price, _book.discount, _book.owner, _book.buyer, true, true, false, false);\n    }\n\n    function accept(uint _id) public {\n        //Get book\n        Book memory _book = books[_id];\n        //Require that book is purchased\n        require(_book.purchased);\n        //Get owner\n        address payable _seller = _book.owner;\n        //Get buyer\n        address payable _buyer = _book.buyer;\n        \n        if (msg.sender == _buyer){\n            _book.buyerok = true;\n            //Update\n            books[_id] = _book;\n            //Trigger event\n            emit BuyerAccepted(_book.id, _book.name, _book.edition, _book.price, _book.discount, _book.owner, _book.buyer, true, true, true, _book.sellerok);\n        } else if (msg.sender == _seller){\n            _book.sellerok = true;\n            //Update\n            books[_id] = _book;\n            //Trigger event\n            emit SellerAccepted(_book.id, _book.name, _book.edition, _book.price, _book.discount, _book.owner, _book.buyer, true, true, _book.buyerok, true);\n        }\n    }\n    \n    function deposit(uint _id) public payable{\n        //Get book\n        Book memory _book = books[_id];\n        //Get owner\n        address payable _seller = _book.owner;\n        //Calculate fee\n        uint fee = _book.price / 100;\n        //Require Ether\n        require(msg.value >= _book.price * 2 - fee);\n        \n        uint amount = msg.value;\n        uint payment = amount - fee;\n        _seller.transfer(payment);\n        }\n}",
  "sourcePath": "/home/orison/Code/dbooks/src/contracts/Dbooks.sol",
  "compiler": {
    "name": "solc",
    "version": "0.5.8+commit.23d335f2.Emscripten.clang"
  },
  "schemaVersion": "3.0.11",
  "updatedAt": "2019-12-11T09:42:07.361Z",
  "devdoc": {
    "methods": {}
  },
  "userdoc": {
    "methods": {}
  }
}